{
  "contractName": "Recycleist",
  "abi": [
    {
      "inputs": [],
      "stateMutability": "nonpayable",
      "type": "constructor"
    },
    {
      "anonymous": false,
      "inputs": [
        {
          "indexed": true,
          "internalType": "uint256",
          "name": "recycleId",
          "type": "uint256"
        },
        {
          "indexed": true,
          "internalType": "uint256",
          "name": "contributionId",
          "type": "uint256"
        }
      ],
      "name": "ContributionApproved",
      "type": "event"
    },
    {
      "anonymous": false,
      "inputs": [
        {
          "indexed": true,
          "internalType": "address",
          "name": "contributionCreator",
          "type": "address"
        },
        {
          "indexed": true,
          "internalType": "uint256",
          "name": "recycleId",
          "type": "uint256"
        },
        {
          "indexed": true,
          "internalType": "uint256",
          "name": "contributionId",
          "type": "uint256"
        }
      ],
      "name": "ContributionCreated",
      "type": "event"
    },
    {
      "anonymous": false,
      "inputs": [
        {
          "indexed": false,
          "internalType": "address",
          "name": "account",
          "type": "address"
        }
      ],
      "name": "Paused",
      "type": "event"
    },
    {
      "anonymous": false,
      "inputs": [
        {
          "indexed": true,
          "internalType": "uint256",
          "name": "recycleId",
          "type": "uint256"
        }
      ],
      "name": "RecycleClosed",
      "type": "event"
    },
    {
      "anonymous": false,
      "inputs": [
        {
          "indexed": true,
          "internalType": "address",
          "name": "recycleCretor",
          "type": "address"
        },
        {
          "indexed": true,
          "internalType": "uint256",
          "name": "recycleId",
          "type": "uint256"
        }
      ],
      "name": "RecycleCreated",
      "type": "event"
    },
    {
      "anonymous": false,
      "inputs": [
        {
          "indexed": true,
          "internalType": "address",
          "name": "tokenOwner",
          "type": "address"
        },
        {
          "indexed": false,
          "internalType": "uint256",
          "name": "tokenAmount",
          "type": "uint256"
        }
      ],
      "name": "RecycleTokenClaimed",
      "type": "event"
    },
    {
      "anonymous": false,
      "inputs": [
        {
          "indexed": true,
          "internalType": "address",
          "name": "user",
          "type": "address"
        },
        {
          "indexed": true,
          "internalType": "uint256",
          "name": "recycleId",
          "type": "uint256"
        },
        {
          "indexed": true,
          "internalType": "uint256",
          "name": "contributionId",
          "type": "uint256"
        },
        {
          "indexed": false,
          "internalType": "uint256",
          "name": "amount",
          "type": "uint256"
        }
      ],
      "name": "RewardClaimed",
      "type": "event"
    },
    {
      "anonymous": false,
      "inputs": [
        {
          "indexed": false,
          "internalType": "address",
          "name": "account",
          "type": "address"
        }
      ],
      "name": "Unpaused",
      "type": "event"
    },
    {
      "anonymous": false,
      "inputs": [
        {
          "indexed": true,
          "internalType": "address",
          "name": "user",
          "type": "address"
        },
        {
          "indexed": true,
          "internalType": "uint256",
          "name": "recycleId",
          "type": "uint256"
        }
      ],
      "name": "UserJoinedRecycle",
      "type": "event"
    },
    {
      "inputs": [
        {
          "internalType": "address",
          "name": "",
          "type": "address"
        },
        {
          "internalType": "uint256",
          "name": "",
          "type": "uint256"
        }
      ],
      "name": "approvedContributions",
      "outputs": [
        {
          "internalType": "bool",
          "name": "",
          "type": "bool"
        }
      ],
      "stateMutability": "view",
      "type": "function",
      "constant": true
    },
    {
      "inputs": [
        {
          "internalType": "address",
          "name": "",
          "type": "address"
        }
      ],
      "name": "balancesOf",
      "outputs": [
        {
          "internalType": "uint256",
          "name": "",
          "type": "uint256"
        }
      ],
      "stateMutability": "view",
      "type": "function",
      "constant": true
    },
    {
      "inputs": [
        {
          "internalType": "address",
          "name": "",
          "type": "address"
        },
        {
          "internalType": "uint256",
          "name": "",
          "type": "uint256"
        }
      ],
      "name": "contributedUsers",
      "outputs": [
        {
          "internalType": "bool",
          "name": "",
          "type": "bool"
        }
      ],
      "stateMutability": "view",
      "type": "function",
      "constant": true
    },
    {
      "inputs": [],
      "name": "contributionIdCounter",
      "outputs": [
        {
          "internalType": "uint256",
          "name": "",
          "type": "uint256"
        }
      ],
      "stateMutability": "view",
      "type": "function",
      "constant": true
    },
    {
      "inputs": [
        {
          "internalType": "uint256",
          "name": "",
          "type": "uint256"
        }
      ],
      "name": "contributions",
      "outputs": [
        {
          "internalType": "uint256",
          "name": "id",
          "type": "uint256"
        },
        {
          "internalType": "uint256",
          "name": "recycleId",
          "type": "uint256"
        },
        {
          "internalType": "string",
          "name": "description",
          "type": "string"
        },
        {
          "internalType": "uint256",
          "name": "amount",
          "type": "uint256"
        },
        {
          "internalType": "address",
          "name": "createdBy",
          "type": "address"
        },
        {
          "internalType": "uint256",
          "name": "createdTime",
          "type": "uint256"
        }
      ],
      "stateMutability": "view",
      "type": "function",
      "constant": true
    },
    {
      "inputs": [
        {
          "internalType": "address",
          "name": "",
          "type": "address"
        },
        {
          "internalType": "uint256",
          "name": "",
          "type": "uint256"
        }
      ],
      "name": "joinedUsers",
      "outputs": [
        {
          "internalType": "bool",
          "name": "",
          "type": "bool"
        }
      ],
      "stateMutability": "view",
      "type": "function",
      "constant": true
    },
    {
      "inputs": [],
      "name": "owner",
      "outputs": [
        {
          "internalType": "address",
          "name": "",
          "type": "address"
        }
      ],
      "stateMutability": "view",
      "type": "function",
      "constant": true
    },
    {
      "inputs": [],
      "name": "paused",
      "outputs": [
        {
          "internalType": "bool",
          "name": "",
          "type": "bool"
        }
      ],
      "stateMutability": "view",
      "type": "function",
      "constant": true
    },
    {
      "inputs": [
        {
          "internalType": "uint256",
          "name": "",
          "type": "uint256"
        }
      ],
      "name": "recycleCreators",
      "outputs": [
        {
          "internalType": "address",
          "name": "",
          "type": "address"
        }
      ],
      "stateMutability": "view",
      "type": "function",
      "constant": true
    },
    {
      "inputs": [],
      "name": "recycleIdCounter",
      "outputs": [
        {
          "internalType": "uint256",
          "name": "",
          "type": "uint256"
        }
      ],
      "stateMutability": "view",
      "type": "function",
      "constant": true
    },
    {
      "inputs": [
        {
          "internalType": "uint256",
          "name": "",
          "type": "uint256"
        }
      ],
      "name": "recycles",
      "outputs": [
        {
          "internalType": "uint256",
          "name": "id",
          "type": "uint256"
        },
        {
          "internalType": "string",
          "name": "description",
          "type": "string"
        },
        {
          "internalType": "enum Recycleist.RecycleType",
          "name": "recycleType",
          "type": "uint8"
        },
        {
          "internalType": "enum Recycleist.State",
          "name": "state",
          "type": "uint8"
        },
        {
          "internalType": "uint256",
          "name": "goal",
          "type": "uint256"
        },
        {
          "internalType": "uint256",
          "name": "deadline",
          "type": "uint256"
        },
        {
          "internalType": "uint256",
          "name": "totalReward",
          "type": "uint256"
        },
        {
          "internalType": "address",
          "name": "createdBy",
          "type": "address"
        },
        {
          "internalType": "uint256",
          "name": "createdTime",
          "type": "uint256"
        }
      ],
      "stateMutability": "view",
      "type": "function",
      "constant": true
    },
    {
      "stateMutability": "payable",
      "type": "receive",
      "payable": true
    },
    {
      "inputs": [],
      "name": "getRecycleistEthBalance",
      "outputs": [
        {
          "internalType": "uint256",
          "name": "",
          "type": "uint256"
        }
      ],
      "stateMutability": "view",
      "type": "function",
      "constant": true
    },
    {
      "inputs": [
        {
          "internalType": "string",
          "name": "_description",
          "type": "string"
        },
        {
          "internalType": "enum Recycleist.RecycleType",
          "name": "_recycleType",
          "type": "uint8"
        },
        {
          "internalType": "enum Recycleist.State",
          "name": "_state",
          "type": "uint8"
        },
        {
          "internalType": "uint256",
          "name": "_goal",
          "type": "uint256"
        },
        {
          "internalType": "uint256",
          "name": "_deadline",
          "type": "uint256"
        },
        {
          "internalType": "uint256",
          "name": "_totalReward",
          "type": "uint256"
        }
      ],
      "name": "createRecycle",
      "outputs": [
        {
          "internalType": "bool",
          "name": "",
          "type": "bool"
        }
      ],
      "stateMutability": "payable",
      "type": "function",
      "payable": true
    },
    {
      "inputs": [
        {
          "internalType": "uint256",
          "name": "_recycleId",
          "type": "uint256"
        }
      ],
      "name": "closeRecycle",
      "outputs": [],
      "stateMutability": "nonpayable",
      "type": "function"
    },
    {
      "inputs": [
        {
          "internalType": "uint256",
          "name": "_recycleId",
          "type": "uint256"
        }
      ],
      "name": "getRecycle",
      "outputs": [
        {
          "internalType": "uint256",
          "name": "id",
          "type": "uint256"
        },
        {
          "internalType": "string",
          "name": "description",
          "type": "string"
        },
        {
          "internalType": "uint256",
          "name": "recycleType",
          "type": "uint256"
        },
        {
          "internalType": "uint256",
          "name": "state",
          "type": "uint256"
        },
        {
          "internalType": "uint256",
          "name": "goal",
          "type": "uint256"
        },
        {
          "internalType": "uint256",
          "name": "deadline",
          "type": "uint256"
        },
        {
          "internalType": "uint256",
          "name": "totalReward",
          "type": "uint256"
        },
        {
          "internalType": "address",
          "name": "createdBy",
          "type": "address"
        },
        {
          "internalType": "uint256",
          "name": "createdTime",
          "type": "uint256"
        }
      ],
      "stateMutability": "view",
      "type": "function",
      "constant": true
    },
    {
      "inputs": [],
      "name": "getRecycles",
      "outputs": [
        {
          "components": [
            {
              "internalType": "uint256",
              "name": "id",
              "type": "uint256"
            },
            {
              "internalType": "string",
              "name": "description",
              "type": "string"
            },
            {
              "internalType": "enum Recycleist.RecycleType",
              "name": "recycleType",
              "type": "uint8"
            },
            {
              "internalType": "enum Recycleist.State",
              "name": "state",
              "type": "uint8"
            },
            {
              "internalType": "uint256",
              "name": "goal",
              "type": "uint256"
            },
            {
              "internalType": "uint256",
              "name": "deadline",
              "type": "uint256"
            },
            {
              "internalType": "uint256",
              "name": "totalReward",
              "type": "uint256"
            },
            {
              "internalType": "address",
              "name": "createdBy",
              "type": "address"
            },
            {
              "internalType": "uint256",
              "name": "createdTime",
              "type": "uint256"
            }
          ],
          "internalType": "struct Recycleist.Recycle[]",
          "name": "",
          "type": "tuple[]"
        }
      ],
      "stateMutability": "view",
      "type": "function",
      "constant": true
    },
    {
      "inputs": [
        {
          "internalType": "uint256",
          "name": "_recycleId",
          "type": "uint256"
        }
      ],
      "name": "joinRecycle",
      "outputs": [],
      "stateMutability": "nonpayable",
      "type": "function"
    },
    {
      "inputs": [
        {
          "internalType": "uint256",
          "name": "_recycleId",
          "type": "uint256"
        }
      ],
      "name": "isUserJoinedRecycle",
      "outputs": [
        {
          "internalType": "bool",
          "name": "",
          "type": "bool"
        }
      ],
      "stateMutability": "view",
      "type": "function",
      "constant": true
    },
    {
      "inputs": [
        {
          "internalType": "uint256",
          "name": "_recycleId",
          "type": "uint256"
        },
        {
          "internalType": "string",
          "name": "_description",
          "type": "string"
        },
        {
          "internalType": "uint256",
          "name": "_amount",
          "type": "uint256"
        }
      ],
      "name": "contributeRecycle",
      "outputs": [
        {
          "internalType": "bool",
          "name": "",
          "type": "bool"
        }
      ],
      "stateMutability": "nonpayable",
      "type": "function"
    },
    {
      "inputs": [
        {
          "internalType": "uint256",
          "name": "_contributionId",
          "type": "uint256"
        }
      ],
      "name": "getContribution",
      "outputs": [
        {
          "internalType": "uint256",
          "name": "id",
          "type": "uint256"
        },
        {
          "internalType": "uint256",
          "name": "recycleId",
          "type": "uint256"
        },
        {
          "internalType": "string",
          "name": "description",
          "type": "string"
        },
        {
          "internalType": "uint256",
          "name": "amount",
          "type": "uint256"
        },
        {
          "internalType": "address",
          "name": "createdBy",
          "type": "address"
        },
        {
          "internalType": "uint256",
          "name": "createdTime",
          "type": "uint256"
        }
      ],
      "stateMutability": "view",
      "type": "function",
      "constant": true
    },
    {
      "inputs": [],
      "name": "getContributions",
      "outputs": [
        {
          "components": [
            {
              "internalType": "uint256",
              "name": "id",
              "type": "uint256"
            },
            {
              "internalType": "uint256",
              "name": "recycleId",
              "type": "uint256"
            },
            {
              "internalType": "string",
              "name": "description",
              "type": "string"
            },
            {
              "internalType": "uint256",
              "name": "amount",
              "type": "uint256"
            },
            {
              "internalType": "address",
              "name": "createdBy",
              "type": "address"
            },
            {
              "internalType": "uint256",
              "name": "createdTime",
              "type": "uint256"
            }
          ],
          "internalType": "struct Recycleist.Contribution[]",
          "name": "",
          "type": "tuple[]"
        }
      ],
      "stateMutability": "view",
      "type": "function",
      "constant": true
    },
    {
      "inputs": [
        {
          "internalType": "uint256",
          "name": "_recycleId",
          "type": "uint256"
        },
        {
          "internalType": "uint256",
          "name": "_contributionId",
          "type": "uint256"
        }
      ],
      "name": "approveContribution",
      "outputs": [
        {
          "internalType": "bool",
          "name": "",
          "type": "bool"
        }
      ],
      "stateMutability": "nonpayable",
      "type": "function"
    },
    {
      "inputs": [
        {
          "internalType": "uint256",
          "name": "_contributionId",
          "type": "uint256"
        }
      ],
      "name": "isContributionApproved",
      "outputs": [
        {
          "internalType": "bool",
          "name": "",
          "type": "bool"
        }
      ],
      "stateMutability": "view",
      "type": "function",
      "constant": true
    },
    {
      "inputs": [
        {
          "internalType": "uint256",
          "name": "_recycleId",
          "type": "uint256"
        },
        {
          "internalType": "uint256",
          "name": "_contributionId",
          "type": "uint256"
        }
      ],
      "name": "claimReward",
      "outputs": [
        {
          "internalType": "bool",
          "name": "",
          "type": "bool"
        }
      ],
      "stateMutability": "payable",
      "type": "function",
      "payable": true
    },
    {
      "inputs": [],
      "name": "pauseApp",
      "outputs": [],
      "stateMutability": "nonpayable",
      "type": "function"
    },
    {
      "inputs": [],
      "name": "unpauseApp",
      "outputs": [],
      "stateMutability": "nonpayable",
      "type": "function"
    }
  ],
  "bytecode": "0x608060405234801561001057600080fd5b5060008060006101000a81548160ff02191690831515021790555033600060016101000a81548173ffffffffffffffffffffffffffffffffffffffff021916908373ffffffffffffffffffffffffffffffffffffffff1602179055506000600181905550600060028190555061455b8061008b6000396000f3fe6080604052600436106101855760003560e01c80637c449396116100d1578063aac2103e1161008a578063cef4225411610064578063cef4225414610610578063d19fa9b814610652578063d35849871461068f578063dda0a81a146106a65761018c565b8063aac2103e14610593578063b716ebeb146105bc578063b86ac9fb146105d35761018c565b80637c4493961461045057806381b471811461047957806386bb8f37146104be5780638c986310146104ee5780638da5cb5b1461052b57806398c79f0f146105565761018c565b80633b0e9be41161013e5780636727d425116101185780636727d425146103615780636cf140bc1461039e5780636fd91da9146103ce57806378e296431461040b5761018c565b80633b0e9be4146102bc5780635c975abb146102f95780636392a51f146103245761018c565b80631a8cddbf146101915780631aaacd5d146101bc5780631cee0700146101e75780631fd841d2146102295780632b0113de14610254578063381db2d41461027f5761018c565b3661018c57005b600080fd5b34801561019d57600080fd5b506101a66106d1565b6040516101b39190613dc0565b60405180910390f35b3480156101c857600080fd5b506101d161090f565b6040516101de91906140ff565b60405180910390f35b3480156101f357600080fd5b5061020e6004803603810190610209919061313a565b610915565b60405161022096959493929190614242565b60405180910390f35b34801561023557600080fd5b5061023e610a09565b60405161024b91906140ff565b60405180910390f35b34801561026057600080fd5b50610269610a0f565b60405161027691906140ff565b60405180910390f35b34801561028b57600080fd5b506102a660048036038101906102a1919061305d565b610a17565b6040516102b39190613de2565b60405180910390f35b3480156102c857600080fd5b506102e360048036038101906102de919061313a565b610a46565b6040516102f09190613de2565b60405180910390f35b34801561030557600080fd5b5061030e610aad565b60405161031b9190613de2565b60405180910390f35b34801561033057600080fd5b5061034b60048036038101906103469190613034565b610ac3565b60405161035891906140ff565b60405180910390f35b34801561036d57600080fd5b506103886004803603810190610383919061313a565b610adb565b6040516103959190613d68565b60405180910390f35b6103b860048036038101906103b39190613099565b610b0e565b6040516103c59190613de2565b60405180910390f35b3480156103da57600080fd5b506103f560048036038101906103f091906131ca565b6110ab565b6040516104029190613de2565b60405180910390f35b34801561041757600080fd5b50610432600480360381019061042d919061313a565b611355565b604051610447999897969594939291906141ae565b60405180910390f35b34801561045c57600080fd5b506104776004803603810190610472919061313a565b611555565b005b34801561048557600080fd5b506104a0600480360381019061049b919061313a565b611879565b6040516104b59998979695949392919061411a565b60405180910390f35b6104d860048036038101906104d391906131ca565b611999565b6040516104e59190613de2565b60405180910390f35b3480156104fa57600080fd5b506105156004803603810190610510919061305d565b611de2565b6040516105229190613de2565b60405180910390f35b34801561053757600080fd5b50610540611e11565b60405161054d9190613d68565b60405180910390f35b34801561056257600080fd5b5061057d6004803603810190610578919061313a565b611e37565b60405161058a9190613de2565b60405180910390f35b34801561059f57600080fd5b506105ba60048036038101906105b5919061313a565b611ed4565b005b3480156105c857600080fd5b506105d1612133565b005b3480156105df57600080fd5b506105fa60048036038101906105f59190613163565b6121cd565b6040516106079190613de2565b60405180910390f35b34801561061c57600080fd5b506106376004803603810190610632919061313a565b6126a0565b60405161064996959493929190614242565b60405180910390f35b34801561065e57600080fd5b506106796004803603810190610674919061305d565b612813565b6040516106869190613de2565b60405180910390f35b34801561069b57600080fd5b506106a4612842565b005b3480156106b257600080fd5b506106bb6128dc565b6040516106c89190613d9e565b60405180910390f35b60608060015467ffffffffffffffff811180156106ed57600080fd5b5060405190808252806020026020018201604052801561072757816020015b610714612e23565b81526020019060019003908161070c5790505b50905060008090505b600154811015610907576000600860008381526020019081526020016000209050806040518061012001604052908160008201548152602001600182018054600181600116156101000203166002900480601f0160208091040260200160405190810160405280929190818152602001828054600181600116156101000203166002900480156108015780601f106107d657610100808354040283529160200191610801565b820191906000526020600020905b8154815290600101906020018083116107e457829003601f168201915b505050505081526020016002820160009054906101000a900460ff16600281111561082857fe5b600281111561083357fe5b81526020016002820160019054906101000a900460ff16600181111561085557fe5b600181111561086057fe5b81526020016003820154815260200160048201548152602001600582015481526020016006820160009054906101000a900473ffffffffffffffffffffffffffffffffffffffff1673ffffffffffffffffffffffffffffffffffffffff1673ffffffffffffffffffffffffffffffffffffffff1681526020016007820154815250508383815181106108ee57fe5b6020026020010181905250508080600101915050610730565b508091505090565b60025481565b6009602052806000526040600020600091509050806000015490806001015490806002018054600181600116156101000203166002900480601f0160208091040260200160405190810160405280929190818152602001828054600181600116156101000203166002900480156109cd5780601f106109a2576101008083540402835291602001916109cd565b820191906000526020600020905b8154815290600101906020018083116109b057829003601f168201915b5050505050908060030154908060040160009054906101000a900473ffffffffffffffffffffffffffffffffffffffff16908060050154905086565b60015481565b600047905090565b60066020528160005260406000206020528060005260406000206000915091509054906101000a900460ff1681565b6000600560003373ffffffffffffffffffffffffffffffffffffffff1673ffffffffffffffffffffffffffffffffffffffff168152602001908152602001600020600083815260200190815260200160002060009054906101000a900460ff169050919050565b60008060009054906101000a900460ff16905090565b60036020528060005260406000206000915090505481565b60046020528060005260406000206000915054906101000a900473ffffffffffffffffffffffffffffffffffffffff1681565b60008060009054906101000a900460ff1615610b5f576040517f08c379a0000000000000000000000000000000000000000000000000000000008152600401610b5690613f5f565b60405180910390fd5b8180610bb334600360003373ffffffffffffffffffffffffffffffffffffffff1673ffffffffffffffffffffffffffffffffffffffff16815260200190815260200160002054612ab590919063ffffffff16565b11610bf3576040517f08c379a0000000000000000000000000000000000000000000000000000000008152600401610bea906140bf565b60405180910390fd5b6000885111610c37576040517f08c379a0000000000000000000000000000000000000000000000000000000008152600401610c2e90613f7f565b60405180910390fd5b60006002811115610c4457fe5b876002811115610c5057fe5b1480610c72575060016002811115610c6457fe5b876002811115610c7057fe5b145b80610c925750600280811115610c8457fe5b876002811115610c9057fe5b145b610cd1576040517f08c379a0000000000000000000000000000000000000000000000000000000008152600401610cc890613e3f565b60405180910390fd5b60008511610d14576040517f08c379a0000000000000000000000000000000000000000000000000000000008152600401610d0b9061407f565b60405180910390fd5b60008411610d57576040517f08c379a0000000000000000000000000000000000000000000000000000000008152600401610d4e90613fff565b60405180910390fd5b60008311610d9a576040517f08c379a0000000000000000000000000000000000000000000000000000000008152600401610d919061409f565b60405180910390fd5b600042905060405180610120016040528060015481526020018a8152602001896002811115610dc557fe5b8152602001886001811115610dd657fe5b8152602001878152602001603c8702830181526020018581526020013373ffffffffffffffffffffffffffffffffffffffff16815260200182815250600860006001548152602001908152602001600020600082015181600001556020820151816001019080519060200190610e4d929190612e9b565b5060408201518160020160006101000a81548160ff02191690836002811115610e7257fe5b021790555060608201518160020160016101000a81548160ff02191690836001811115610e9b57fe5b02179055506080820151816003015560a0820151816004015560c0820151816005015560e08201518160060160006101000a81548173ffffffffffffffffffffffffffffffffffffffff021916908373ffffffffffffffffffffffffffffffffffffffff1602179055506101008201518160070155905050610f6534600360003373ffffffffffffffffffffffffffffffffffffffff1673ffffffffffffffffffffffffffffffffffffffff16815260200190815260200160002054612ab590919063ffffffff16565b600360003373ffffffffffffffffffffffffffffffffffffffff1673ffffffffffffffffffffffffffffffffffffffff168152602001908152602001600020819055503360046000600154815260200190815260200160002060006101000a81548173ffffffffffffffffffffffffffffffffffffffff021916908373ffffffffffffffffffffffffffffffffffffffff1602179055506001600081548092919060010191905055503073ffffffffffffffffffffffffffffffffffffffff166108fc349081150290604051600060405180830381858888f19350505050158015611054573d6000803e3d6000fd5b506001543373ffffffffffffffffffffffffffffffffffffffff167f3abbc4faaef65e04fb3756b75e366050f57c41075a792135f6edfe50c0bb185e60405160405180910390a36001925050509695505050505050565b60008060009054906101000a900460ff16156110fc576040517f08c379a00000000000000000000000000000000000000000000000000000000081526004016110f390613f5f565b60405180910390fd5b823373ffffffffffffffffffffffffffffffffffffffff166004600083815260200190815260200160002060009054906101000a900473ffffffffffffffffffffffffffffffffffffffff1673ffffffffffffffffffffffffffffffffffffffff161461119e576040517f08c379a000000000000000000000000000000000000000000000000000000000815260040161119590613e9f565b60405180910390fd5b6009600084815260200190815260200160002060040160009054906101000a900473ffffffffffffffffffffffffffffffffffffffff168360011515600760008473ffffffffffffffffffffffffffffffffffffffff1673ffffffffffffffffffffffffffffffffffffffff168152602001908152602001600020600083815260200190815260200160002060009054906101000a900460ff161515141561127b576040517f08c379a000000000000000000000000000000000000000000000000000000000815260040161127290613e7f565b60405180910390fd5b6001600760006009600089815260200190815260200160002060040160009054906101000a900473ffffffffffffffffffffffffffffffffffffffff1673ffffffffffffffffffffffffffffffffffffffff1673ffffffffffffffffffffffffffffffffffffffff168152602001908152602001600020600087815260200190815260200160002060006101000a81548160ff02191690831515021790555084867fbfe577b36f6862b4729cc4b1ab7de20f7d8017e3b23552b685712e81741efe9560405160405180910390a36001935050505092915050565b600060606000806000806000806000600860008b8152602001908152602001600020600001549850600860008b81526020019081526020016000206001018054600181600116156101000203166002900480601f0160208091040260200160405190810160405280929190818152602001828054600181600116156101000203166002900480156114275780601f106113fc57610100808354040283529160200191611427565b820191906000526020600020905b81548152906001019060200180831161140a57829003601f168201915b50505050509750600860008b815260200190815260200160002060020160009054906101000a900460ff16600281111561145d57fe5b9650600860008b815260200190815260200160002060020160019054906101000a900460ff16600181111561148e57fe5b9550600860008b8152602001908152602001600020600301549450600860008b8152602001908152602001600020600401549350600860008b8152602001908152602001600020600501549250600860008b815260200190815260200160002060060160009054906101000a900473ffffffffffffffffffffffffffffffffffffffff169150600860008b81526020019081526020016000206007015490508888888888888888889850985098509850985098509850985098509193959799909294969850565b6000809054906101000a900460ff16156115a4576040517f08c379a000000000000000000000000000000000000000000000000000000000815260040161159b90613f5f565b60405180910390fd5b80600073ffffffffffffffffffffffffffffffffffffffff166004600083815260200190815260200160002060009054906101000a900473ffffffffffffffffffffffffffffffffffffffff1673ffffffffffffffffffffffffffffffffffffffff161415611648576040517f08c379a000000000000000000000000000000000000000000000000000000000815260040161163f90613e5f565b60405180910390fd5b816000600181111561165657fe5b6008600083815260200190815260200160002060020160019054906101000a900460ff16600181111561168557fe5b146116c5576040517f08c379a00000000000000000000000000000000000000000000000000000000081526004016116bc90613f1f565b60405180910390fd5b82600860008281526020019081526020016000206004015442111561171f576040517f08c379a00000000000000000000000000000000000000000000000000000000081526004016117169061403f565b60405180910390fd5b8360011515600560003373ffffffffffffffffffffffffffffffffffffffff1673ffffffffffffffffffffffffffffffffffffffff168152602001908152602001600020600083815260200190815260200160002060009054906101000a900460ff16151514156117c5576040517f08c379a00000000000000000000000000000000000000000000000000000000081526004016117bc90613fbf565b60405180910390fd5b6001600560003373ffffffffffffffffffffffffffffffffffffffff1673ffffffffffffffffffffffffffffffffffffffff168152602001908152602001600020600087815260200190815260200160002060006101000a81548160ff021916908315150217905550843373ffffffffffffffffffffffffffffffffffffffff167fb0bc8b85b28dce76e07ed2d9c447488e55b5f9d6a2625acfacbc0412e1cf590560405160405180910390a35050505050565b6008602052806000526040600020600091509050806000015490806001018054600181600116156101000203166002900480601f01602080910402602001604051908101604052809291908181526020018280546001816001161561010002031660029004801561192b5780601f106119005761010080835404028352916020019161192b565b820191906000526020600020905b81548152906001019060200180831161190e57829003601f168201915b5050505050908060020160009054906101000a900460ff16908060020160019054906101000a900460ff16908060030154908060040154908060050154908060060160009054906101000a900473ffffffffffffffffffffffffffffffffffffffff16908060070154905089565b60008060009054906101000a900460ff16156119ea576040517f08c379a00000000000000000000000000000000000000000000000000000000081526004016119e190613f5f565b60405180910390fd5b826001808111156119f757fe5b6008600083815260200190815260200160002060020160019054906101000a900460ff166001811115611a2657fe5b14611a66576040517f08c379a0000000000000000000000000000000000000000000000000000000008152600401611a5d90613f3f565b60405180910390fd5b8360001515600660003373ffffffffffffffffffffffffffffffffffffffff1673ffffffffffffffffffffffffffffffffffffffff168152602001908152602001600020600083815260200190815260200160002060009054906101000a900460ff1615151415611b0c576040517f08c379a0000000000000000000000000000000000000000000000000000000008152600401611b0390613eff565b60405180910390fd5b6009600085815260200190815260200160002060040160009054906101000a900473ffffffffffffffffffffffffffffffffffffffff168460011515600760008473ffffffffffffffffffffffffffffffffffffffff1673ffffffffffffffffffffffffffffffffffffffff168152602001908152602001600020600083815260200190815260200160002060009054906101000a900460ff16151514611be8576040517f08c379a0000000000000000000000000000000000000000000000000000000008152600401611bdf906140df565b60405180910390fd5b6000600860008981526020019081526020016000206003015490506000600860008a81526020019081526020016000206005015490506000600960008a81526020019081526020016000206003015490506000611c6084611c528486612b0a90919063ffffffff16565b612b7a90919063ffffffff16565b905060003390508073ffffffffffffffffffffffffffffffffffffffff166108fc839081150290604051600060405180830381858888f19350505050158015611cad573d6000803e3d6000fd5b506000600860008e815260200190815260200160002060060160009054906101000a900473ffffffffffffffffffffffffffffffffffffffff169050611d3b83600360008473ffffffffffffffffffffffffffffffffffffffff1673ffffffffffffffffffffffffffffffffffffffff16815260200190815260200160002054612bc490919063ffffffff16565b600360008373ffffffffffffffffffffffffffffffffffffffff1673ffffffffffffffffffffffffffffffffffffffff168152602001908152602001600020819055508b8d3373ffffffffffffffffffffffffffffffffffffffff167f812be816db82c66cd18ca8457005cd84689642d8ac4d38599cc6af444a2dc72a86604051611dc691906140ff565b60405180910390a460019a505050505050505050505092915050565b60056020528160005260406000206020528060005260406000206000915091509054906101000a900460ff1681565b600060019054906101000a900473ffffffffffffffffffffffffffffffffffffffff1681565b6000600760006009600085815260200190815260200160002060040160009054906101000a900473ffffffffffffffffffffffffffffffffffffffff1673ffffffffffffffffffffffffffffffffffffffff1673ffffffffffffffffffffffffffffffffffffffff168152602001908152602001600020600083815260200190815260200160002060009054906101000a900460ff169050919050565b6000809054906101000a900460ff1615611f23576040517f08c379a0000000000000000000000000000000000000000000000000000000008152600401611f1a90613f5f565b60405180910390fd5b80600073ffffffffffffffffffffffffffffffffffffffff166004600083815260200190815260200160002060009054906101000a900473ffffffffffffffffffffffffffffffffffffffff1673ffffffffffffffffffffffffffffffffffffffff161415611fc7576040517f08c379a0000000000000000000000000000000000000000000000000000000008152600401611fbe90613e5f565b60405180910390fd5b813373ffffffffffffffffffffffffffffffffffffffff166004600083815260200190815260200160002060009054906101000a900473ffffffffffffffffffffffffffffffffffffffff1673ffffffffffffffffffffffffffffffffffffffff1614612069576040517f08c379a000000000000000000000000000000000000000000000000000000000815260040161206090613e9f565b60405180910390fd5b82600860008281526020019081526020016000206004015442116120c2576040517f08c379a00000000000000000000000000000000000000000000000000000000081526004016120b99061405f565b60405180910390fd5b600060086000868152602001908152602001600020905060018160020160016101000a81548160ff021916908360018111156120fa57fe5b0217905550847fb88a9e46bfe1961c863d207e3e99581c826a01b6baf850f5923c530dfedc086d60405160405180910390a25050505050565b600060019054906101000a900473ffffffffffffffffffffffffffffffffffffffff1673ffffffffffffffffffffffffffffffffffffffff163373ffffffffffffffffffffffffffffffffffffffff16146121c3576040517f08c379a00000000000000000000000000000000000000000000000000000000081526004016121ba90613edf565b60405180910390fd5b6121cb612c0e565b565b60008060009054906101000a900460ff161561221e576040517f08c379a000000000000000000000000000000000000000000000000000000000815260040161221590613f5f565b60405180910390fd5b83600073ffffffffffffffffffffffffffffffffffffffff166004600083815260200190815260200160002060009054906101000a900473ffffffffffffffffffffffffffffffffffffffff1673ffffffffffffffffffffffffffffffffffffffff1614156122c2576040517f08c379a00000000000000000000000000000000000000000000000000000000081526004016122b990613e5f565b60405180910390fd5b84600060018111156122d057fe5b6008600083815260200190815260200160002060020160019054906101000a900460ff1660018111156122ff57fe5b1461233f576040517f08c379a000000000000000000000000000000000000000000000000000000000815260040161233690613f1f565b60405180910390fd5b856008600082815260200190815260200160002060040154421115612399576040517f08c379a00000000000000000000000000000000000000000000000000000000081526004016123909061403f565b60405180910390fd5b8660001515600560003373ffffffffffffffffffffffffffffffffffffffff1673ffffffffffffffffffffffffffffffffffffffff168152602001908152602001600020600083815260200190815260200160002060009054906101000a900460ff161515141561243f576040517f08c379a00000000000000000000000000000000000000000000000000000000081526004016124369061401f565b60405180910390fd5b8760011515600660003373ffffffffffffffffffffffffffffffffffffffff1673ffffffffffffffffffffffffffffffffffffffff168152602001908152602001600020600083815260200190815260200160002060009054906101000a900460ff16151514156124e5576040517f08c379a00000000000000000000000000000000000000000000000000000000081526004016124dc90613f9f565b60405180910390fd5b6040518060c0016040528060025481526020018a81526020018981526020018881526020013373ffffffffffffffffffffffffffffffffffffffff168152602001428152506009600060025481526020019081526020016000206000820151816000015560208201518160010155604082015181600201908051906020019061256f929190612e9b565b506060820151816003015560808201518160040160006101000a81548173ffffffffffffffffffffffffffffffffffffffff021916908373ffffffffffffffffffffffffffffffffffffffff16021790555060a082015181600501559050506001600660003373ffffffffffffffffffffffffffffffffffffffff1673ffffffffffffffffffffffffffffffffffffffff16815260200190815260200160002060008b815260200190815260200160002060006101000a81548160ff021916908315150217905550600260008154809291906001019190505550600254893373ffffffffffffffffffffffffffffffffffffffff167f3672c1ec2ad5bdbe89816effb428d7842de5200bbfb52f76ebb680f6f4c3896b60405160405180910390a46001955050505050509392505050565b600080606060008060006009600088815260200190815260200160002060000154955060096000888152602001908152602001600020600101549450600960008881526020019081526020016000206002018054600181600116156101000203166002900480601f0160208091040260200160405190810160405280929190818152602001828054600181600116156101000203166002900480156127865780601f1061275b57610100808354040283529160200191612786565b820191906000526020600020905b81548152906001019060200180831161276957829003601f168201915b50505050509350600960008881526020019081526020016000206003015492506009600088815260200190815260200160002060040160009054906101000a900473ffffffffffffffffffffffffffffffffffffffff1691506009600088815260200190815260200160002060050154905085858585858595509550955095509550955091939550919395565b60076020528160005260406000206020528060005260406000206000915091509054906101000a900460ff1681565b600060019054906101000a900473ffffffffffffffffffffffffffffffffffffffff1673ffffffffffffffffffffffffffffffffffffffff163373ffffffffffffffffffffffffffffffffffffffff16146128d2576040517f08c379a00000000000000000000000000000000000000000000000000000000081526004016128c990613edf565b60405180910390fd5b6128da612cb7565b565b60608060025467ffffffffffffffff811180156128f857600080fd5b5060405190808252806020026020018201604052801561293257816020015b61291f612f1b565b8152602001906001900390816129175790505b50905060008090505b600254811015612aad576000600960008381526020019081526020016000209050806040518060c00160405290816000820154815260200160018201548152602001600282018054600181600116156101000203166002900480601f016020809104026020016040519081016040528092919081815260200182805460018160011615610100020316600290048015612a155780601f106129ea57610100808354040283529160200191612a15565b820191906000526020600020905b8154815290600101906020018083116129f857829003601f168201915b50505050508152602001600382015481526020016004820160009054906101000a900473ffffffffffffffffffffffffffffffffffffffff1673ffffffffffffffffffffffffffffffffffffffff1673ffffffffffffffffffffffffffffffffffffffff168152602001600582015481525050838381518110612a9457fe5b602002602001018190525050808060010191505061293b565b508091505090565b600080828401905083811015612b00576040517f08c379a0000000000000000000000000000000000000000000000000000000008152600401612af790613ebf565b60405180910390fd5b8091505092915050565b600080831415612b1d5760009050612b74565b6000828402905082848281612b2e57fe5b0414612b6f576040517f08c379a0000000000000000000000000000000000000000000000000000000008152600401612b6690613fdf565b60405180910390fd5b809150505b92915050565b6000612bbc83836040518060400160405280601a81526020017f536166654d6174683a206469766973696f6e206279207a65726f000000000000815250612d5f565b905092915050565b6000612c0683836040518060400160405280601e81526020017f536166654d6174683a207375627472616374696f6e206f766572666c6f770000815250612dc0565b905092915050565b6000809054906101000a900460ff1615612c5d576040517f08c379a0000000000000000000000000000000000000000000000000000000008152600401612c5490613f5f565b60405180910390fd5b60016000806101000a81548160ff0219169083151502179055507f62e78cea01bee320cd4e420270b5ea74000d11b0c9f74754ebdbfc544b05a258612ca0612e1b565b604051612cad9190613d83565b60405180910390a1565b6000809054906101000a900460ff16612d05576040517f08c379a0000000000000000000000000000000000000000000000000000000008152600401612cfc90613e1f565b60405180910390fd5b60008060006101000a81548160ff0219169083151502179055507f5db9ee0a495bf2e6ff9c91a7834c1ba4fdd244a5e8aa4e537bd38aeae4b073aa612d48612e1b565b604051612d559190613d83565b60405180910390a1565b60008083118290612da6576040517f08c379a0000000000000000000000000000000000000000000000000000000008152600401612d9d9190613dfd565b60405180910390fd5b506000838581612db257fe5b049050809150509392505050565b6000838311158290612e08576040517f08c379a0000000000000000000000000000000000000000000000000000000008152600401612dff9190613dfd565b60405180910390fd5b5060008385039050809150509392505050565b600033905090565b604051806101200160405280600081526020016060815260200160006002811115612e4a57fe5b815260200160006001811115612e5c57fe5b8152602001600081526020016000815260200160008152602001600073ffffffffffffffffffffffffffffffffffffffff168152602001600081525090565b828054600181600116156101000203166002900490600052602060002090601f016020900481019282601f10612edc57805160ff1916838001178555612f0a565b82800160010185558215612f0a579182015b82811115612f09578251825591602001919060010190612eee565b5b509050612f179190612f67565b5090565b6040518060c0016040528060008152602001600081526020016060815260200160008152602001600073ffffffffffffffffffffffffffffffffffffffff168152602001600081525090565b612f8991905b80821115612f85576000816000905550600101612f6d565b5090565b90565b600081359050612f9b816144d7565b92915050565b600081359050612fb0816144ee565b92915050565b600081359050612fc5816144fe565b92915050565b600082601f830112612fdc57600080fd5b8135612fef612fea826142d7565b6142aa565b9150808252602083016020830185838301111561300b57600080fd5b61301683828461446a565b50505092915050565b60008135905061302e8161450e565b92915050565b60006020828403121561304657600080fd5b600061305484828501612f8c565b91505092915050565b6000806040838503121561307057600080fd5b600061307e85828601612f8c565b925050602061308f8582860161301f565b9150509250929050565b60008060008060008060c087890312156130b257600080fd5b600087013567ffffffffffffffff8111156130cc57600080fd5b6130d889828a01612fcb565b96505060206130e989828a01612fa1565b95505060406130fa89828a01612fb6565b945050606061310b89828a0161301f565b935050608061311c89828a0161301f565b92505060a061312d89828a0161301f565b9150509295509295509295565b60006020828403121561314c57600080fd5b600061315a8482850161301f565b91505092915050565b60008060006060848603121561317857600080fd5b60006131868682870161301f565b935050602084013567ffffffffffffffff8111156131a357600080fd5b6131af86828701612fcb565b92505060406131c08682870161301f565b9150509250925092565b600080604083850312156131dd57600080fd5b60006131eb8582860161301f565b92505060206131fc8582860161301f565b9150509250929050565b60006132128383613bfc565b905092915050565b60006132268383613c85565b905092915050565b61323781614410565b82525050565b613246816143a2565b82525050565b613255816143a2565b82525050565b600061326682614323565b613270818561435e565b93508360208202850161328285614303565b8060005b858110156132be578484038952815161329f8582613206565b94506132aa83614344565b925060208a01995050600181019050613286565b50829750879550505050505092915050565b60006132db8261432e565b6132e5818561436f565b9350836020820285016132f785614313565b8060005b858110156133335784840389528151613314858261321a565b945061331f83614351565b925060208a019950506001810190506132fb565b50829750879550505050505092915050565b61334e816143b4565b82525050565b61335d81614422565b82525050565b61336c81614422565b82525050565b61337b81614434565b82525050565b61338a81614434565b82525050565b600061339b82614339565b6133a58185614380565b93506133b5818560208601614479565b6133be816144ac565b840191505092915050565b60006133d482614339565b6133de8185614391565b93506133ee818560208601614479565b6133f7816144ac565b840191505092915050565b600061340f601483614391565b91507f5061757361626c653a206e6f74207061757365640000000000000000000000006000830152602082019050919050565b600061344f602a83614391565b91507f52656379636c652074797065206d75737420626520676976656e20666f72207460008301527f68652072656379636c65000000000000000000000000000000000000000000006020830152604082019050919050565b60006134b5601783614391565b91507f436f756c64206e6f7420666f756e642072656379636c650000000000000000006000830152602082019050919050565b60006134f5601e83614391565b91507f436f6e747269627574696f6e20686173206265656e20617070726f76656400006000830152602082019050919050565b6000613535602283614391565b91507f55736572206973206e6f742063726561746f72206f662074686520726563796360008301527f6c650000000000000000000000000000000000000000000000000000000000006020830152604082019050919050565b600061359b601b83614391565b91507f536166654d6174683a206164646974696f6e206f766572666c6f7700000000006000830152602082019050919050565b60006135db603783614391565b91507f4f6e6c79206f776e6572206f6620746865207468697320636f6e74726163742060008301527f63616e2072756e2074686973206f7065726174696f6e210000000000000000006020830152604082019050919050565b6000613641602c83614391565b91507f5573657220686173206e6f7420616c726561647920636f6e747269627574656460008301527f207468652072656379636c6500000000000000000000000000000000000000006020830152604082019050919050565b60006136a7601783614391565b91507f52656379636c65206d75737420626520737461727465640000000000000000006000830152602082019050919050565b60006136e7601583614391565b91507f52656379636c65206d75737420626520656e64656400000000000000000000006000830152602082019050919050565b6000613727601083614391565b91507f5061757361626c653a20706175736564000000000000000000000000000000006000830152602082019050919050565b6000613767602983614391565b91507f4465736372697074696f6e206d75737420626520676976656e20666f7220746860008301527f652072656379636c6500000000000000000000000000000000000000000000006020830152604082019050919050565b60006137cd602883614391565b91507f557365722068617320616c726561647920636f6e74726962757465642074686560008301527f2072656379636c650000000000000000000000000000000000000000000000006020830152604082019050919050565b6000613833602383614391565b91507f557365722068617320616c7265616479206a6f696e656420746865207265637960008301527f636c6500000000000000000000000000000000000000000000000000000000006020830152604082019050919050565b6000613899602183614391565b91507f536166654d6174683a206d756c7469706c69636174696f6e206f766572666c6f60008301527f77000000000000000000000000000000000000000000000000000000000000006020830152604082019050919050565b60006138ff602683614391565b91507f446561646c696e65206d75737420626520676976656e20666f7220746865207260008301527f656379636c6500000000000000000000000000000000000000000000000000006020830152604082019050919050565b6000613965602783614391565b91507f5573657220686173206e6f7420616c7265616479206a6f696e6564207468652060008301527f72656379636c65000000000000000000000000000000000000000000000000006020830152604082019050919050565b60006139cb602383614391565b91507f52656379636c6520646561646c696e65206d757374206e6f742062652070617360008301527f73656400000000000000000000000000000000000000000000000000000000006020830152604082019050919050565b6000613a31601f83614391565b91507f52656379636c6520646561646c696e65206d75737420626520706173736564006000830152602082019050919050565b6000613a71602283614391565b91507f476f616c206d75737420626520676976656e20666f722074686520726563796360008301527f6c650000000000000000000000000000000000000000000000000000000000006020830152604082019050919050565b6000613ad7602a83614391565b91507f546f74616c20726577617264206d75737420626520676976656e20666f72207460008301527f68652072656379636c65000000000000000000000000000000000000000000006020830152604082019050919050565b6000613b3d602683614391565b91507f4e6f2073756666696369656e7420616d6f756e7420746f20637265617465207260008301527f656379636c6500000000000000000000000000000000000000000000000000006020830152604082019050919050565b6000613ba3602283614391565b91507f436f6e747269627574696f6e20686173206e6f74206265656e20617070726f7660008301527f65640000000000000000000000000000000000000000000000000000000000006020830152604082019050919050565b600060c083016000830151613c146000860182613d4a565b506020830151613c276020860182613d4a565b5060408301518482036040860152613c3f8282613390565b9150506060830151613c546060860182613d4a565b506080830151613c67608086018261323d565b5060a0830151613c7a60a0860182613d4a565b508091505092915050565b600061012083016000830151613c9e6000860182613d4a565b5060208301518482036020860152613cb68282613390565b9150506040830151613ccb6040860182613354565b506060830151613cde6060860182613372565b506080830151613cf16080860182613d4a565b5060a0830151613d0460a0860182613d4a565b5060c0830151613d1760c0860182613d4a565b5060e0830151613d2a60e086018261323d565b50610100830151613d3f610100860182613d4a565b508091505092915050565b613d5381614406565b82525050565b613d6281614406565b82525050565b6000602082019050613d7d600083018461324c565b92915050565b6000602082019050613d98600083018461322e565b92915050565b60006020820190508181036000830152613db8818461325b565b905092915050565b60006020820190508181036000830152613dda81846132d0565b905092915050565b6000602082019050613df76000830184613345565b92915050565b60006020820190508181036000830152613e1781846133c9565b905092915050565b60006020820190508181036000830152613e3881613402565b9050919050565b60006020820190508181036000830152613e5881613442565b9050919050565b60006020820190508181036000830152613e78816134a8565b9050919050565b60006020820190508181036000830152613e98816134e8565b9050919050565b60006020820190508181036000830152613eb881613528565b9050919050565b60006020820190508181036000830152613ed88161358e565b9050919050565b60006020820190508181036000830152613ef8816135ce565b9050919050565b60006020820190508181036000830152613f1881613634565b9050919050565b60006020820190508181036000830152613f388161369a565b9050919050565b60006020820190508181036000830152613f58816136da565b9050919050565b60006020820190508181036000830152613f788161371a565b9050919050565b60006020820190508181036000830152613f988161375a565b9050919050565b60006020820190508181036000830152613fb8816137c0565b9050919050565b60006020820190508181036000830152613fd881613826565b9050919050565b60006020820190508181036000830152613ff88161388c565b9050919050565b60006020820190508181036000830152614018816138f2565b9050919050565b6000602082019050818103600083015261403881613958565b9050919050565b60006020820190508181036000830152614058816139be565b9050919050565b6000602082019050818103600083015261407881613a24565b9050919050565b6000602082019050818103600083015261409881613a64565b9050919050565b600060208201905081810360008301526140b881613aca565b9050919050565b600060208201905081810360008301526140d881613b30565b9050919050565b600060208201905081810360008301526140f881613b96565b9050919050565b60006020820190506141146000830184613d59565b92915050565b600061012082019050614130600083018c613d59565b8181036020830152614142818b6133c9565b9050614151604083018a613363565b61415e6060830189613381565b61416b6080830188613d59565b61417860a0830187613d59565b61418560c0830186613d59565b61419260e083018561324c565b6141a0610100830184613d59565b9a9950505050505050505050565b6000610120820190506141c4600083018c613d59565b81810360208301526141d6818b6133c9565b90506141e5604083018a613d59565b6141f26060830189613d59565b6141ff6080830188613d59565b61420c60a0830187613d59565b61421960c0830186613d59565b61422660e083018561324c565b614234610100830184613d59565b9a9950505050505050505050565b600060c0820190506142576000830189613d59565b6142646020830188613d59565b818103604083015261427681876133c9565b90506142856060830186613d59565b614292608083018561324c565b61429f60a0830184613d59565b979650505050505050565b6000604051905081810181811067ffffffffffffffff821117156142cd57600080fd5b8060405250919050565b600067ffffffffffffffff8211156142ee57600080fd5b601f19601f8301169050602081019050919050565b6000819050602082019050919050565b6000819050602082019050919050565b600081519050919050565b600081519050919050565b600081519050919050565b6000602082019050919050565b6000602082019050919050565b600082825260208201905092915050565b600082825260208201905092915050565b600082825260208201905092915050565b600082825260208201905092915050565b60006143ad826143e6565b9050919050565b60008115159050919050565b60008190506143ce826144bd565b919050565b60008190506143e1826144ca565b919050565b600073ffffffffffffffffffffffffffffffffffffffff82169050919050565b6000819050919050565b600061441b82614446565b9050919050565b600061442d826143c0565b9050919050565b600061443f826143d3565b9050919050565b600061445182614458565b9050919050565b6000614463826143e6565b9050919050565b82818337600083830152505050565b60005b8381101561449757808201518184015260208101905061447c565b838111156144a6576000848401525b50505050565b6000601f19601f8301169050919050565b600381106144c757fe5b50565b600281106144d457fe5b50565b6144e0816143a2565b81146144eb57600080fd5b50565b600381106144fb57600080fd5b50565b6002811061450b57600080fd5b50565b61451781614406565b811461452257600080fd5b5056fea26469706673582212200371d2c7da372f3f7f8b516ad3b2ade12811f7186147cb6f17b812f76653daf964736f6c63430006050033",
  "source": "pragma solidity 0.6.5;\npragma experimental ABIEncoderV2;\n\nimport \"@openzeppelin/contracts/utils/Pausable.sol\";\nimport \"@openzeppelin/contracts/math/SafeMath.sol\";\n\n/** \n    @title Recycleist smart contract\n    @author ssozuer\n*/\ncontract Recycleist is Pausable {\n\tusing SafeMath for uint256;\n\n\t// #### STATE VARIABLE DECLARATIONS #### //\n\taddress public owner;\n\tuint256 public recycleIdCounter;\n\tuint256 public contributionIdCounter;\n\tmapping(address => uint256) public balancesOf; // holds eth balances of recycle creators\n\tmapping(uint256 => address) public recycleCreators; // holds who did create the recycle\n\tmapping(address => mapping(uint256 => bool)) public joinedUsers; // holds the information about if a user joined or did not joined the recycle\n\tmapping(address => mapping(uint256 => bool)) public contributedUsers; // holds the contribution information of a user\n\tmapping(address => mapping(uint256 => bool)) public approvedContributions; // holds the contribution approval information\n\n\tmapping(uint256 => Recycle) public recycles;\n\tmapping(uint256 => Contribution) public contributions;\n\n\t// #### STRUCT DECLARATIONS #### //\n\tstruct Recycle {\n\t\tuint256 id;\n\t\tstring description;\n\t\tRecycleType recycleType;\n\t\tState state;\n\t\tuint256 goal;\n\t\tuint256 deadline;\n\t\tuint256 totalReward;\n\t\taddress createdBy;\n\t\tuint256 createdTime;\n\t}\n\n\tstruct Contribution {\n\t\tuint256 id;\n\t\tuint256 recycleId;\n\t\tstring description;\n\t\tuint256 amount;\n\t\taddress createdBy;\n\t\tuint256 createdTime;\n\t}\n\n\t// ##### ENUM DEFINITIONS ##### //\n\tenum State { STARTED, ENDED }\n\tenum RecycleType { PLASTIC, PAPER, GLASS }\n\n\t// ##### MODIFIER DECLARATIONS ##### //\n\tmodifier onlyOwner() {\n\t\trequire(msg.sender == owner, \"Only owner of the this contract can run this operation!\");\n\t\t_;\n\t}\n\n\tmodifier foundRecycle(uint256 _recycleId) {\n\t\trequire(recycleCreators[_recycleId] != address(0), \"Could not found recycle\");\n\t\t_;\n\t}\n\n\tmodifier mustRecycleOwner(uint256 _recycleId) {\n\t\trequire(recycleCreators[_recycleId] == msg.sender, \"User is not creator of the recycle\");\n\t\t_;\n\t}\n\n\tmodifier hasEnoughAmount(uint256 _recycleReward) {\n\t\trequire(\n\t\t\tbalancesOf[msg.sender].add(msg.value) > _recycleReward,\n\t\t\t\"No sufficient amount to create recycle\"\n\t\t);\n\t\t_;\n\t}\n\n\tmodifier recycleDeadlineMustPassed(uint256 _recycleId) {\n\t\trequire(block.timestamp > recycles[_recycleId].deadline, \"Recycle deadline must be passed\");\n\t\t_;\n\t}\n\n\tmodifier recycleDeadlineMustNotPassed(uint256 _recycleId) {\n\t\trequire(\n\t\t\tblock.timestamp <= recycles[_recycleId].deadline,\n\t\t\t\"Recycle deadline must not be passed\"\n\t\t);\n\t\t_;\n\t}\n\n\tmodifier recycleMustStarted(uint256 _recycleId) {\n\t\trequire(recycles[_recycleId].state == State.STARTED, \"Recycle must be started\");\n\t\t_;\n\t}\n\n\tmodifier recycleMustEnded(uint256 _recycleId) {\n\t\trequire(recycles[_recycleId].state == State.ENDED, \"Recycle must be ended\");\n\t\t_;\n\t}\n\n\tmodifier userIsNotJoin(uint256 _recycleId) {\n\t\trequire(joinedUsers[msg.sender][_recycleId] != true, \"User has already joined the recycle\");\n\t\t_;\n\t}\n\n\tmodifier userIsJoined(uint256 _recycleId) {\n\t\trequire(\n\t\t\tjoinedUsers[msg.sender][_recycleId] != false,\n\t\t\t\"User has not already joined the recycle\"\n\t\t);\n\t\t_;\n\t}\n\n\tmodifier userIsNotContribute(uint256 _recycleId) {\n\t\trequire(\n\t\t\tcontributedUsers[msg.sender][_recycleId] != true,\n\t\t\t\"User has already contributed the recycle\"\n\t\t);\n\t\t_;\n\t}\n\n\tmodifier userIsContributed(uint256 _recycleId) {\n\t\trequire(\n\t\t\tcontributedUsers[msg.sender][_recycleId] != false,\n\t\t\t\"User has not already contributed the recycle\"\n\t\t);\n\t\t_;\n\t}\n\n\tmodifier contributionNotApproved(address _contributor, uint256 _contributionId) {\n\t\trequire(\n\t\t\tapprovedContributions[_contributor][_contributionId] != true,\n\t\t\t\"Contribution has been approved\"\n\t\t);\n\t\t_;\n\t}\n\n\tmodifier contributionMustBeApproved(address _contributor, uint256 _contributionId) {\n\t\trequire(\n\t\t\tapprovedContributions[_contributor][_contributionId] == true,\n\t\t\t\"Contribution has not been approved\"\n\t\t);\n\t\t_;\n\t}\n\n\t// ###### EVENT DECLARATIONS ##### //\n\tevent RecycleTokenClaimed(address indexed tokenOwner, uint256 tokenAmount);\n\tevent RecycleCreated(address indexed recycleCretor, uint256 indexed recycleId);\n\tevent RecycleClosed(uint256 indexed recycleId);\n\tevent ContributionCreated(\n\t\taddress indexed contributionCreator,\n\t\tuint256 indexed recycleId,\n\t\tuint256 indexed contributionId\n\t);\n\tevent ContributionApproved(uint256 indexed recycleId, uint256 indexed contributionId);\n\tevent UserJoinedRecycle(address indexed user, uint256 indexed recycleId);\n\tevent RewardClaimed(\n\t\taddress indexed user,\n\t\tuint256 indexed recycleId,\n\t\tuint256 indexed contributionId,\n\t\tuint256 amount\n\t);\n\n\t/**\n\t\tRecycle.ist constructor\n\t */\n\tconstructor() public {\n\t\towner = msg.sender;\n\t\trecycleIdCounter = 0;\n\t\tcontributionIdCounter = 0;\n\t}\n\n\t/**\n\t\tFallback function to hold eth balance\n    */\n\treceive() external payable {}\n\n\t/**\n\t\tThe method returns balance of the Recycle.ist contract\n\t*/\n\tfunction getRecycleistEthBalance() public view returns (uint256) {\n\t\treturn address(this).balance;\n\t}\n\n\t/**\n\t\tThe method allows users to create 'Recycle'\n\t\t@param  _description Recycle description\n\t\t@param  _recycleType Recycle type(PLASTIC=0, PAPER=1, GLASS=2)\n\t\t@param  _state       Recycle state(STARTED=0, ENDED=0)\n\t\t@param  _goal\t\t Recycle goal in kilogram(i.e. 100kg)\n\t\t@param  _deadline    Recycle deadline(for testing purposes the metric is minutes)\n\t\t@param  _totalReward Recycle total reward. The reward will be shared among the contributors(recylesists)\n\t\t@return returns bool\n\t*/\n\tfunction createRecycle(\n\t\tstring memory _description,\n\t\tRecycleType _recycleType,\n\t\tState _state,\n\t\tuint256 _goal,\n\t\tuint256 _deadline,\n\t\tuint256 _totalReward\n\t) public payable whenNotPaused hasEnoughAmount(_totalReward) returns (bool) {\n\t\trequire(bytes(_description).length > 0, \"Description must be given for the recycle\");\n\t\trequire(\n\t\t\t_recycleType == RecycleType.PLASTIC ||\n\t\t\t\t_recycleType == RecycleType.PAPER ||\n\t\t\t\t_recycleType == RecycleType.GLASS,\n\t\t\t\"Recycle type must be given for the recycle\"\n\t\t);\n\t\trequire(_goal > 0, \"Goal must be given for the recycle\");\n\t\trequire(_deadline > 0, \"Deadline must be given for the recycle\");\n\t\trequire(_totalReward > 0, \"Total reward must be given for the recycle\");\n\n\t\tuint256 time = block.timestamp;\n\t\trecycles[recycleIdCounter] = Recycle({\n\t\t\tid: recycleIdCounter,\n\t\t\tdescription: _description,\n\t\t\trecycleType: _recycleType,\n\t\t\tstate: _state,\n\t\t\tgoal: _goal,\n\t\t\tdeadline: time + _deadline * 60,\n\t\t\ttotalReward: _totalReward,\n\t\t\tcreatedBy: msg.sender,\n\t\t\tcreatedTime: time\n\t\t});\n\t\tbalancesOf[msg.sender] = balancesOf[msg.sender].add(msg.value);\n\t\trecycleCreators[recycleIdCounter] = msg.sender;\n\t\trecycleIdCounter++;\n\n\t\t// send eth value to the contract\n\t\taddress(this).transfer(msg.value);\n\t\temit RecycleCreated(msg.sender, recycleIdCounter);\n\t\treturn true;\n\t}\n\n\t/**\n\t\tThe method allows recycle creator to close the recycle after recycle deadline\n\t\t@param _recycleId Recycle Id\n\t*/\n\tfunction closeRecycle(uint256 _recycleId)\n\t\tpublic\n\t\twhenNotPaused\n\t\tfoundRecycle(_recycleId)\n\t\tmustRecycleOwner(_recycleId)\n\t\trecycleDeadlineMustPassed(_recycleId)\n\t{\n\t\tRecycle storage recycle = recycles[_recycleId];\n\t\trecycle.state = State.ENDED;\n\t\temit RecycleClosed(_recycleId);\n\t}\n\n\t/**\n\t\tThe method allows fetch a recycle by recyle id\n\t\t@param _recycleId Recycle id\t\t\n\t*/\n\tfunction getRecycle(uint256 _recycleId)\n\t\tpublic\n\t\tview\n\t\treturns (\n\t\t\tuint256 id,\n\t\t\tstring memory description,\n\t\t\tuint256 recycleType,\n\t\t\tuint256 state,\n\t\t\tuint256 goal,\n\t\t\tuint256 deadline,\n\t\t\tuint256 totalReward,\n\t\t\taddress createdBy,\n\t\t\tuint256 createdTime\n\t\t)\n\t{\n\t\tid = recycles[_recycleId].id;\n\t\tdescription = recycles[_recycleId].description;\n\t\trecycleType = uint256(recycles[_recycleId].recycleType);\n\t\tstate = uint256(recycles[_recycleId].state);\n\t\tgoal = recycles[_recycleId].goal;\n\t\tdeadline = recycles[_recycleId].deadline;\n\t\ttotalReward = recycles[_recycleId].totalReward;\n\t\tcreatedBy = recycles[_recycleId].createdBy;\n\t\tcreatedTime = recycles[_recycleId].createdTime;\n\t\treturn (\n\t\t\tid,\n\t\t\tdescription,\n\t\t\trecycleType,\n\t\t\tstate,\n\t\t\tgoal,\n\t\t\tdeadline,\n\t\t\ttotalReward,\n\t\t\tcreatedBy,\n\t\t\tcreatedTime\n\t\t);\n\t}\n\n\t/**\n\t\t The method returns the all stored recycles\n\t\t @return recycleList\n    */\n\tfunction getRecycles() public view returns (Recycle[] memory) {\n\t\tRecycle[] memory recycleList = new Recycle[](recycleIdCounter);\n\t\tfor (uint256 i = 0; i < recycleIdCounter; i++) {\n\t\t\tRecycle storage recycle = recycles[i];\n\t\t\trecycleList[i] = recycle;\n\t\t}\n\t\treturn recycleList;\n\t}\n\n\t/**\n\t\tThe method allows users to join an active recycle\n\t\t@param _recycleId Recycle id\n\t*/\n\tfunction joinRecycle(uint256 _recycleId)\n\t\tpublic\n\t\twhenNotPaused\n\t\tfoundRecycle(_recycleId)\n\t\trecycleMustStarted(_recycleId)\n\t\trecycleDeadlineMustNotPassed(_recycleId)\n\t\tuserIsNotJoin(_recycleId)\n\t{\n\t\tjoinedUsers[msg.sender][_recycleId] = true;\n\t\temit UserJoinedRecycle(msg.sender, _recycleId);\n\t}\n\n\t/**\n\t\tThe method returns whether an user joined or not joined a recycle\n\t\t@param _recycleId Recycle id\n\t\t@return bool \n\t*/\n\tfunction isUserJoinedRecycle(uint256 _recycleId) public view returns (bool) {\n\t\treturn joinedUsers[msg.sender][_recycleId];\n\t}\n\n\t/**\n\t\tThe method allows users to contribute an active recycle\n\t\t@param _recycleId   Recycle id\n\t\t@param _description Recycle contribution description\n\t\t@param _amount      Recycle contribution that defines the amount of the contribution\n\t\t\n\t\t@return bool\n\t*/\n\tfunction contributeRecycle(\n\t\tuint256 _recycleId,\n\t\tstring memory _description,\n\t\tuint256 _amount\n\t)\n\t\tpublic\n\t\twhenNotPaused\n\t\tfoundRecycle(_recycleId)\n\t\trecycleMustStarted(_recycleId)\n\t\trecycleDeadlineMustNotPassed(_recycleId)\n\t\tuserIsJoined(_recycleId)\n\t\tuserIsNotContribute(_recycleId)\n\t\treturns (bool)\n\t{\n\t\tcontributions[contributionIdCounter] = Contribution({\n\t\t\tid: contributionIdCounter,\n\t\t\trecycleId: _recycleId,\n\t\t\tdescription: _description,\n\t\t\tamount: _amount,\n\t\t\tcreatedBy: msg.sender,\n\t\t\tcreatedTime: block.timestamp\n\t\t});\n\n\t\tcontributedUsers[msg.sender][_recycleId] = true;\n\t\tcontributionIdCounter++;\n\n\t\temit ContributionCreated(msg.sender, _recycleId, contributionIdCounter);\n\t\treturn true;\n\t}\n\n\t/**\n\t\tThe method returns a contribution by contribution id\n\t\t@param _contributionId Contribution id\n    */\n\tfunction getContribution(uint256 _contributionId)\n\t\tpublic\n\t\tview\n\t\treturns (\n\t\t\tuint256 id,\n\t\t\tuint256 recycleId,\n\t\t\tstring memory description,\n\t\t\tuint256 amount,\n\t\t\taddress createdBy,\n\t\t\tuint256 createdTime\n\t\t)\n\t{\n\t\tid = contributions[_contributionId].id;\n\t\trecycleId = contributions[_contributionId].recycleId;\n\t\tdescription = contributions[_contributionId].description;\n\t\tamount = contributions[_contributionId].amount;\n\t\tcreatedBy = contributions[_contributionId].createdBy;\n\t\tcreatedTime = contributions[_contributionId].createdTime;\n\t\treturn (id, recycleId, description, amount, createdBy, createdTime);\n\t}\n\n\t/**\n\t\tThe method returns all stored contributions\n\t\t@return contributionList\n\t*/\n\tfunction getContributions() public view returns (Contribution[] memory) {\n\t\tContribution[] memory contributionList = new Contribution[](contributionIdCounter);\n\t\tfor (uint256 i = 0; i < contributionIdCounter; i++) {\n\t\t\tContribution storage contribution = contributions[i];\n\t\t\tcontributionList[i] = contribution;\n\t\t}\n\t\treturn contributionList;\n\t}\n\n\t/**\n\t\tThe method allows recycle creators to approve contributions made by recyleists\n\t\t@param _recycleId      Recycle id\n\t\t@param _contributionId Contribution id\n\t*/\n\tfunction approveContribution(uint256 _recycleId, uint256 _contributionId)\n\t\tpublic\n\t\twhenNotPaused\n\t\tmustRecycleOwner(_recycleId)\n\t\tcontributionNotApproved(contributions[_contributionId].createdBy, _contributionId)\n\t\treturns (bool)\n\t{\n\t\tapprovedContributions[contributions[_contributionId].createdBy][_contributionId] = true;\n\t\temit ContributionApproved(_recycleId, _contributionId);\n\t\treturn true;\n\t}\n\n\t/**\n\t\tThe method returns whether a given contribution id is approved or not\n\t\t@param _contributionId Contribution id\n\t\t@return bool\n\t*/\n\tfunction isContributionApproved(uint256 _contributionId) public view returns (bool) {\n\t\treturn approvedContributions[contributions[_contributionId].createdBy][_contributionId];\n\t}\n\n\t/**\n\t\tThe method allows users whom contributed a recycle to claim their rewards after recycle deadline\n\t\t@param _recycleId       Recycle id\n\t\t@param _contributionId  Contribution id\n\t*/\n\tfunction claimReward(uint256 _recycleId, uint256 _contributionId)\n\t\tpublic\n\t\tpayable\n\t\twhenNotPaused\n\t\trecycleMustEnded(_recycleId)\n\t\tuserIsContributed(_recycleId)\n\t\tcontributionMustBeApproved(contributions[_contributionId].createdBy, _contributionId)\n\t\treturns (bool)\n\t{\n\t\tuint256 goal = recycles[_recycleId].goal;\n\t\tuint256 totalReward = recycles[_recycleId].totalReward;\n\t\tuint256 contributionAmount = contributions[_contributionId].amount;\n\t\tuint256 earnedReward = (totalReward.mul(contributionAmount)).div(goal);\n\n\t\t// transfer the earned eth value to the contributor\n\t\taddress payable contributor = msg.sender;\n\t\tcontributor.transfer(earnedReward);\n\n\t\t// substract the earned amount from the recycle creator's balance\n\t\taddress recycleCreator = recycles[_recycleId].createdBy;\n\t\tbalancesOf[recycleCreator] = balancesOf[recycleCreator].sub(earnedReward);\n\n\t\temit RewardClaimed(msg.sender, _recycleId, _contributionId, earnedReward);\n\t\treturn true;\n\t}\n\n\t/**\n\t\tThe method pauses the contract\n\t*/\n\tfunction pauseApp() public onlyOwner {\n\t\tsuper._pause();\n\t}\n\n\t/**\n\t\tThe method unpauses a contract if the contract is paused\n\t*/\n\tfunction unpauseApp() public onlyOwner {\n\t\tsuper._unpause();\n\t}\n}\n",
  "sourcePath": "/Users/ssozuer/projects/recycleist/contracts/Recycleist.sol",
  "compiler": {
    "name": "solc",
    "version": "0.6.5+commit.f956cc89.Emscripten.clang"
  },
  "schemaVersion": "3.0.23",
  "updatedAt": "2020-12-02T00:24:36.462Z",
  "networkType": "ethereum",
  "devdoc": {
    "author": "ssozuer",
    "methods": {
      "approveContribution(uint256,uint256)": {
        "params": {
          "_contributionId": "Contribution id",
          "_recycleId": "Recycle id"
        }
      },
      "claimReward(uint256,uint256)": {
        "params": {
          "_contributionId": "Contribution id",
          "_recycleId": "Recycle id"
        }
      },
      "closeRecycle(uint256)": {
        "params": {
          "_recycleId": "Recycle Id"
        }
      },
      "contributeRecycle(uint256,string,uint256)": {
        "params": {
          "_amount": "Recycle contribution that defines the amount of the contribution",
          "_description": "Recycle contribution description",
          "_recycleId": "Recycle id"
        },
        "returns": {
          "_0": "bool"
        }
      },
      "createRecycle(string,uint8,uint8,uint256,uint256,uint256)": {
        "params": {
          "_deadline": "Recycle deadline(for testing purposes the metric is minutes)",
          "_description": "Recycle description",
          "_goal": "Recycle goal in kilogram(i.e. 100kg)",
          "_recycleType": "Recycle type(PLASTIC=0, PAPER=1, GLASS=2)",
          "_state": "Recycle state(STARTED=0, ENDED=0)",
          "_totalReward": "Recycle total reward. The reward will be shared among the contributors(recylesists)"
        },
        "returns": {
          "_0": "returns bool"
        }
      },
      "getContribution(uint256)": {
        "params": {
          "_contributionId": "Contribution id"
        }
      },
      "getRecycle(uint256)": {
        "params": {
          "_recycleId": "Recycle id\t\t"
        }
      },
      "isContributionApproved(uint256)": {
        "params": {
          "_contributionId": "Contribution id"
        },
        "returns": {
          "_0": "bool"
        }
      },
      "isUserJoinedRecycle(uint256)": {
        "params": {
          "_recycleId": "Recycle id"
        },
        "returns": {
          "_0": "bool "
        }
      },
      "joinRecycle(uint256)": {
        "params": {
          "_recycleId": "Recycle id"
        }
      },
      "paused()": {
        "details": "Returns true if the contract is paused, and false otherwise."
      }
    },
    "title": "Recycleist smart contract"
  },
  "userdoc": {
    "methods": {
      "approveContribution(uint256,uint256)": {
        "notice": "The method allows recycle creators to approve contributions made by recyleists"
      },
      "claimReward(uint256,uint256)": {
        "notice": "The method allows users whom contributed a recycle to claim their rewards after recycle deadline"
      },
      "closeRecycle(uint256)": {
        "notice": "The method allows recycle creator to close the recycle after recycle deadline"
      },
      "constructor": "Recycle.ist constructor",
      "contributeRecycle(uint256,string,uint256)": {
        "notice": "The method allows users to contribute an active recycle"
      },
      "createRecycle(string,uint8,uint8,uint256,uint256,uint256)": {
        "notice": "The method allows users to create 'Recycle'"
      },
      "getContribution(uint256)": {
        "notice": "The method returns a contribution by contribution id"
      },
      "getContributions()": {
        "notice": "The method returns all stored contributions"
      },
      "getRecycle(uint256)": {
        "notice": "The method allows fetch a recycle by recyle id"
      },
      "getRecycleistEthBalance()": {
        "notice": "The method returns balance of the Recycle.ist contract"
      },
      "getRecycles()": {
        "notice": "The method returns the all stored recycles"
      },
      "isContributionApproved(uint256)": {
        "notice": "The method returns whether a given contribution id is approved or not"
      },
      "isUserJoinedRecycle(uint256)": {
        "notice": "The method returns whether an user joined or not joined a recycle"
      },
      "joinRecycle(uint256)": {
        "notice": "The method allows users to join an active recycle"
      },
      "pauseApp()": {
        "notice": "The method pauses the contract"
      },
      "unpauseApp()": {
        "notice": "The method unpauses a contract if the contract is paused"
      }
    }
  }
}